:040000000DEF00F010
:0400080020EF16F0DF
:06001800FF004AEF23F097
:1020000000024000000005000001B951800BC26FC2
:10201000B951B925C86FB8AF10EF10F012EF10F03A
:1020200013EF10F0C881C851D8B419EF10F01BEFAE
:1020300010F02EEF10F0C829D8A421EF10F023EFF4
:1020400010F02BEF10F0000EB66F000EB76F000E01
:10205000B86F000EB96FB88F36EF10F0000EB66F84
:10206000000EB76F000EB86F000EB96FBD51800B38
:10207000C21BBD51BD25C76FBCAF41EF10F043EF90
:1020800010F044EF10F0C781C751D8B44AEF10F0F8
:102090004CEF10F05FEF10F0C729D8A452EF10F00A
:1020A00054EF10F05CEF10F0000EBA6F000EBB6F33
:1020B000000EBC6F000EBD6FBC8F67EF10F0000EFE
:1020C000BA6F000EBB6F000EBC6F000EBD6FC75124
:1020D000D8B46DEF10F06FEF10F077EF10F0C8513B
:1020E000D8A475EF10F077EF10F081EF10F0000E2C
:1020F000B66F000EB76F000EB86F000EB96F2BEF02
:1021000012F0BC51B6036F00CCFFCDF06F00D0FFD2
:10211000CEF0CD51C36FC46BC56BC66BCE51C96FCA
:10212000CA6BCB6BCC6BBB51B7036F00CCFFCDF050
:102130006F00D0FFCEF0CD51C327000EC423C523BE
:10214000C623CE51C927000ECA23CB23CC23BA51B4
:10215000B8036F00CCFFCDF06F00D0FFCEF0CD51B3
:10216000C327000EC423C523C623CE51C927000EA2
:10217000CA23CB23CC23C5C0C6F0C4C0C5F0C3C09E
:10218000C4F0C36BBA51B7036F00CCFFCDF06F0042
:10219000D0FFCEF0CD51C327CE51C423000EC523AE
:1021A000000EC623BB51B6036F00CCFFCDF06F000D
:1021B000D0FFCEF0CD51C327CE51C423000EC5238E
:1021C000000EC623C5C0C6F0C4C0C5F0C3C0C4F06D
:1021D000C36BBA51B6036F00CCFFCDF06F00D0FFD8
:1021E000CEF0CD51C327CE51C423000EC523000E1F
:1021F000C623BC51B7036F00CCFFCDF06F00D0FFFA
:10220000CEF0CD51C927CE51CA23000ECB23000EEC
:10221000CC23BB51B8036F00CCFFCDF06F00D0FFD3
:10222000CEF0CD51C927CE51CA23000ECB23000ECC
:10223000CC23BC51B8036F00CCFFCDF06F00D0FFB2
:10224000CEF0CD51BE6FCE51BF6FC06BC16BC0C061
:10225000C1F0BFC0C0F0BEC0BFF0BE6BBE51C92749
:10226000BF51CA23C051CB23C151CC23C3C0BEF040
:10227000C4C0BFF0C5C0C0F0C6C0C1F0190E46EF63
:1022800011F0D890C133C033BF33BE33E82E41EFD5
:1022900011F0BE51C927BF51CA23C051CB23C15130
:1022A000CC23C5C0C6F0C4C0C5F0C3C0C4F0C36B66
:1022B000C751C8C0BEF0BF6BBE27000EBF23820E41
:1022C000BE25CD6FFF0EBF21CE6F7CEF11F0D890F1
:1022D000C937CA37CB37CC37C6AF71EF11F073EFC0
:1022E00011F074EF11F0C981D890C337C437C537E6
:1022F000C637CD07D8A0CE07CBAF81EF11F083EF63
:1023000011F067EF11F0000EC76FC6AF8AEF11F042
:102310008CEF11F0B0EF11F0FF0EC315BE6FFF0E82
:10232000C415BF6FFF0EC515C06F7F0EC615C16FF8
:10233000BE51BF11C011C111D8B4A1EF11F0A3EF6C
:1023400011F0A7EF11F0010EC76FB0EF11F0C9A1A6
:10235000ACEF11F0AEEF11F0B0EF11F0A3EF11F010
:10236000C751D8B4B6EF11F0B8EF11F0DCEF11F0AF
:10237000010EC927000ECA23CB23CC23CCA1C3EF67
:1023800011F0C5EF11F0DCEF11F0C9C0BEF0CAC00A
:10239000BFF0CBC0C0F0CCC0C1F0C135C133C03339
:1023A000BF33BE33BEC0C9F0BFC0CAF0C0C0CBF09F
:1023B000C1C0CCF0CD4BCE2BCEBFE7EF11F0CE514C
:1023C00008E1CD29D8A0E7EF11F0E9EF11F0F3EF24
:1023D00011F0000EC96F000ECA6F800ECB6F7F0E1A
:1023E000CC6F21EF12F0CEBF00EF12F0CE5106E11C
:1023F000CD05D8B0FEEF11F000EF12F00CEF12F0A7
:10240000000EC96F000ECA6F000ECB6F000ECC6FAE
:10241000000EC26F21EF12F0CDC0C8F0FF0EC91739
:10242000FF0ECA177F0ECB17000ECC17C8A11BEFEB
:1024300012F01DEF12F01EEF12F0CB8FD890C831C2
:10244000CC6FC251CC13C9C0B6F0CAC0B7F0CBC074
:10245000B8F0CCC0B9F012001250800B1B6E1250B5
:102460001224216E11AE37EF12F039EF12F03AEF6D
:1024700012F021802150D8B440EF12F042EF12F058
:1024800055EF12F02128D8A448EF12F04AEF12F0CD
:1024900052EF12F0000E0F6E000E106E000E116E55
:1024A000000E126E118E5DEF12F0000E0F6E000E18
:1024B000106E000E116E000E126E1650800B1B1A5D
:1024C00016501624206E15AE68EF12F06AEF12F067
:1024D0006BEF12F020802050D8B471EF12F073EF40
:1024E00012F086EF12F02028D8A479EF12F07BEFDB
:1024F00012F083EF12F0000E136E000E146E000E39
:10250000156E000E166E158E8EEF12F0000E136E05
:10251000000E146E000E156E000E166E2050D8B40C
:1025200094EF12F096EF12F09EEF12F02150D8A423
:102530009CEF12F09EEF12F0A8EF12F0000E0F6E5B
:10254000000E106E000E116E000E126E52EF14F09F
:1025500015500F026F00CCFF26F06F00D0FF27F060
:1025600026501C6E1D6A1E6A1F6A2750226E236A3F
:10257000246A256A145010026F00CCFF26F06F0009
:10258000D0FF27F026501C26000E1D221E221F22DF
:1025900027502226000E2322242225221350110226
:1025A0006F00CCFF26F06F00D0FF27F026501C26CE
:1025B000000E1D221E221F2227502226000E23223B
:1025C000242225221EC01FF01DC01EF01CC01DF0BD
:1025D0001C6A135010026F00CCFF26F06F00D0FF72
:1025E00027F026501C2627501D22000E1E22000E0A
:1025F0001F2214500F026F00CCFF26F06F00D0FF97
:1026000027F026501C2627501D22000E1E22000EE9
:102610001F221EC01FF01DC01EF01CC01DF01C6A32
:1026200013500F026F00CCFF26F06F00D0FF27F091
:1026300026501C2627501D22000E1E22000E1F228F
:10264000155010026F00CCFF26F06F00D0FF27F06E
:102650002650222627502322000E2422000E252257
:10266000145011026F00CCFF26F06F00D0FF27F04E
:102670002650222627502322000E2422000E252237
:10268000155011026F00CCFF26F06F00D0FF27F02D
:102690002650176E2750186E196A1A6A19C01AF058
:1026A00018C019F017C018F0176A175022261850D2
:1026B0002322195024221A5025221CC017F01DC0B5
:1026C00018F01EC019F01FC01AF0190E6DEF13F0AC
:1026D000D8901A32193218321732E82E68EF13F0F8
:1026E0001750222618502322195024221A5025222E
:1026F0001EC01FF01DC01EF01CC01DF01C6A205023
:1027000021C017F0186A1726000E1822820E17240F
:10271000266EFF0E1820276EA3EF13F0D8902236F6
:102720002336243625361FAE98EF13F09AEF13F0B8
:102730009BEF13F02280D8901C361D361E361F36B4
:102740002606D8A0270624AEA8EF13F0AAEF13F0B0
:102750008EEF13F0000E206E1FAEB1EF13F0B3EF4B
:1027600013F0D7EF13F0FF0E1C14176EFF0E1D149D
:10277000186EFF0E1E14196E7F0E1F141A6E17505E
:10278000181019101A10D8B4C8EF13F0CAEF13F0CC
:10279000CEEF13F0010E206ED7EF13F022A0D3EF8F
:1027A00013F0D5EF13F0D7EF13F0CAEF13F020506A
:1027B000D8B4DDEF13F0DFEF13F003EF14F0010EE8
:1027C0002226000E23222422252225A0EAEF13F040
:1027D000ECEF13F003EF14F022C017F023C018F051
:1027E00024C019F025C01AF01A341A3219321832DE
:1027F000173217C022F018C023F019C024F01AC0F5
:1028000025F0264A272A27BE0EEF14F0275008E1AC
:102810002628D8A00EEF14F010EF14F01AEF14F0E1
:10282000000E226E000E236E800E246E7F0E256E2B
:1028300048EF14F027BE27EF14F0275006E12604D6
:10284000D8B025EF14F027EF14F033EF14F0000E9A
:10285000226E000E236E000E246E000E256E000EFA
:102860001B6E48EF14F026C021F0FF0E2216FF0E5B
:1028700023167F0E2416000E251621A042EF14F019
:1028800044EF14F045EF14F0248ED8902130256EDB
:102890001B50251222C00FF023C010F024C011F0ED
:1028A00025C012F012001250800B1F6E125012241D
:1028B000266E11AE5EEF14F060EF14F061EF14F0CD
:1028C00026802650D8B467EF14F069EF14F07EEF3D
:1028D00014F02628D8A46FEF14F071EF14F079EFFC
:1028E00014F0000E0F6E000E106E000E116E000E32
:1028F000126E118E000E126E86EF14F0000E0F6E27
:10290000000E106E000E116E000E126E1650800B2F
:102910001F1A16501624276E15AE91EF14F093EF80
:1029200014F094EF14F027802750D8B49AEF14F0E5
:102930009CEF14F0B1EF14F02728D8A4A2EF14F004
:10294000A4EF14F0ACEF14F0000E136E000E146E32
:10295000000E156E000E166E158E000E166EB9EF77
:1029600014F0000E136E000E146E000E156E000EA5
:10297000166E1350141015101610D8A4C2EF14F0D0
:10298000C4EF14F0DCEF14F0000E0F6E000E106EAA
:10299000000E116E000E126E800E11127F0E1212BA
:1029A0001F5012120FC00FF010C010F011C011F024
:1029B00012C012F01FEF16F02650D8A4E2EF14F068
:1029C000E4EF14F0EEEF14F0000E0F6E000E106E38
:1029D000000E116E000E126E1FEF16F0275026C06B
:1029E00017F0186A175E000E185A7F0E1724206E13
:1029F000000E1820216E0FC01BF010C01CF011C07B
:102A00001DF012C01EF0000E0F6E000E106E000EB4
:102A1000116E000E126E000E226E000E236E000E5E
:102A2000246E000E256E000E276E4FEF15F0275016
:102A3000D8B41DEF15F01FEF15F036EF15F0D89054
:102A40001B361C361D361E36D8900F361036113602
:102A5000123625AE2EEF15F030EF15F031EF15F0F0
:102A60000F80D890223623362436253613501B5C2F
:102A700014501C5815501D5816501E58D8A043EF1E
:102A800015F045EF15F04EEF15F0258C13501B5E39
:102A900014501C5A15501D5A16501E5A272A190E2A
:102AA000276455EF15F057EF15F017EF15F01B5091
:102AB0001C101D101E10D8B460EF15F062EF15F059
:102AC0007AEF15F022807AEF15F0D8900F36103695
:102AD0001136123625AE6FEF15F071EF15F072EF6B
:102AE00015F00F80D890223623362436253620065E
:102AF000D8A0210611AE7FEF15F081EF15F065EF3C
:102B000015F0000E276E25AE88EF15F08AEF15F050
:102B1000AEEF15F0FF0E2214176EFF0E2314186E81
:102B2000FF0E2414196E7F0E25141A6E17501810FC
:102B300019101A10D8B49FEF15F0A1EF15F0A5EFFA
:102B400015F0010E276EAEEF15F00FA0AAEF15F0ED
:102B5000ACEF15F0AEEF15F0A1EF15F02750D8B49B
:102B6000B4EF15F0B6EF15F0DAEF15F0010E0F2601
:102B7000000E10221122122212A0C1EF15F0C3EF95
:102B800015F0DAEF15F00FC017F010C018F011C0F3
:102B900019F012C01AF01A341A32193218321732D8
:102BA00017C00FF018C010F019C011F01AC012F0C1
:102BB000204A212A21BEE5EF15F0215008E1202806
:102BC000D8A0E5EF15F0E7EF15F0F2EF15F0000EE5
:102BD000216E2068000E0F6E000E106E000E116E3A
:102BE000000E126E21BEFFEF15F0215006E1200409
:102BF000D8B0FDEF15F0FFEF15F00DEF16F0000E59
:102C0000216E000E206E000E0F6E000E106E000E74
:102C1000116E000E126E000E1F6E20C026F026A050
:102C200014EF16F016EF16F019EF16F0118E1AEFDA
:102C300016F0119ED8902630126ED0EF14F01200CC
:102C40006F00E8FF39F06F00ECFF3AF0390193A70D
:102C50002CEF16F02EEF16F038EF16F0A3A733EF97
:102C600016F035EF16F038EF16F0A39707EC1BF0CF
:102C7000390198AD3EEF16F040EF16F08BEF16F0ED
:102C8000A8AD45EF16F047EF16F08BEF16F0A89DB4
:102C90009A90440E00018019D8A451EF16F053EF1A
:102CA00016F069EF16F05CBE5EEF16F05C5008E1BE
:102CB0005B04D8A05EEF16F060EF16F069EF16F037
:102CC0005B06D8A05C065BC007F05CC008F017ECA0
:102CD00025F0550E00018019D8A471EF16F073EF9E
:102CE00016F089EF16F05CBE81EF16F0570E5B5CB4
:102CF000020E5C58D8B07FEF16F081EF16F089EF26
:102D000016F05B4A5C2A5BC007F05CC008F017EC69
:102D100025F03901989D97A190EF16F092EF16F0EB
:102D2000AFEF16F0A7A197EF16F099EF16F0AFEFFF
:102D300016F0A791DFEC1FF0060E58185910D8A412
:102D4000A4EF16F0A6EF16F0AFEF16F03901999147
:102D500058685968000E536E010E0001A76F3901C3
:102D600099A1B5EF16F0B7EF16F0C2EF16F0A9A1D2
:102D7000BCEF16F0BEEF16F0C2EF16F0A991949ECC
:102D8000010E526E94A1C7EF16F0C9EF16F01BEFBB
:102D900017F0A4A1CEEF16F0D0EF16F01BEF17F04E
:102DA000A491B290000E516E7CC054F07DC055F0DD
:102DB00054C070F055C071F054C001F055C002F01D
:102DC000036A046A000EE3EC1CF001C013F002C0B9
:102DD00014F003C015F004C016F0660E0F6E890ED5
:102DE000106E020E116E460E126E53EC14F00FC0F0
:102DF00028F010C029F011C02AF012C02BF07FEC8F
:102E000021F02850936E000E00017C6F000E7D6F44
:102E1000000E7E6F000E7F6F48EC24F09FC074F0B0
:102E2000A0C075F05BC076F05CC077F0390194917A
:102E3000010E0001A66F390190AF21EF17F023EFCB
:102E400017F06DEF17F0A0AF28EF17F02AEF17F08B
:102E50006DEF17F03A0157A130EF17F032EF17F08E
:102E60006DEF17F05791010E536E000E0001786F51
:102E7000000E796F000E7A6F000E7B6F5150D8A450
:102E800044EF17F046EF17F05DEF17F0010E516EAB
:102E9000000E7C6F000E7D6F000E7E6F000E7F6F48
:102EA000000EB16E000EB06E39019481A491B28013
:102EB000988DA89D9A806DEF17F05104D8A463EF08
:102EC00017F065EF17F06DEF17F0010E7C27000E7D
:102ED0007D237E237F236DEF17F0390193A973EFD4
:102EE00017F075EF17F07FEF17F0A3A97AEF17F03F
:102EF0007CEF17F07FEF17F0A39995EC23F06000BB
:102F0000EBF0FBFF6000E7F0FAFF1100CDAC8BEFB8
:102F100017F08DEF17F0B9EF17F0CDAA92EF17F079
:102F200094EF17F0B9EF17F0CDB899EF17F09BEFCA
:102F300017F0B9EF17F0000E426E010E416E3F50D0
:102F4000411809E140504218D8B4A9EF17F0ABEF8F
:102F500017F0B3EF17F061EC26F041C03FF042C02C
:102F600040F0000E4B6E000E026E030E016E6FEC11
:102F700020F0CDACBEEF17F0C0EF17F0ECEF17F07C
:102F8000CDBAC5EF17F0C7EF17F0ECEF17F0CDB8DB
:102F9000CCEF17F0CEEF17F0ECEF17F0000E426E0B
:102FA000020E416E3F50411809E140504218D8B41A
:102FB000DCEF17F0DEEF17F0E6EF17F083EC26F00A
:102FC00041C03FF042C040F0000E4B6E000E026E5A
:102FD000030E016E6FEC20F0CDACF1EF17F0F3EFC4
:102FE00017F01FEF18F0CDBAF8EF17F0FAEF17F05F
:102FF0001FEF18F0CDA8FFEF17F001EF18F01FEF4B
:1030000018F0000E426E030E416E3F50411809E168
:1030100040504218D8B40FEF18F011EF18F019EF24
:1030200018F05BEC26F041C03FF042C040F0000ECB
:103030004B6E000E026E020E016E6FEC20F0CDBCE6
:1030400024EF18F026EF18F052EF18F0CDBA2BEF5E
:1030500018F02DEF18F052EF18F0CDA832EF18F05D
:1030600034EF18F052EF18F0000E426E040E416E6D
:103070003F50411809E140504218D8B442EF18F0CF
:1030800044EF18F04CEF18F07EEC26F041C03FF012
:1030900042C040F0000E4B6E000E026E020E016E3A
:1030A0006FEC20F0CDBC57EF18F059EF18F085EF1A
:1030B00018F0CDAA5EEF18F060EF18F085EF18F069
:1030C000CDA865EF18F067EF18F085EF18F0000E47
:1030D000426E050E416E3F50411809E140504218C2
:1030E000D8B475EF18F077EF18F07FEF18F055ECC3
:1030F00026F041C03FF042C040F0000E4B6E000E83
:10310000026E010E016E6FEC20F0CDBC8AEF18F05C
:103110008CEF18F0B8EF18F0CDAA91EF18F093EFFC
:1031200018F0B8EF18F0CDB898EF18F09AEF18F043
:10313000B8EF18F0000E426E060E416E3F50411877
:1031400009E140504218D8B4A8EF18F0AAEF18F0DF
:10315000B2EF18F079EC26F041C03FF042C040F0E9
:10316000000E4B6E000E026E010E016E6FEC20F031
:103170001200CDBCBEEF18F0C0EF18F0ECEF18F065
:10318000CDBAC5EF18F0C7EF18F0ECEF18F0CDA8E6
:10319000CCEF18F0CEEF18F0ECEF18F0000E426E06
:1031A000010E416E3F50411809E140504218D8B419
:1031B000DCEF18F0DEEF18F0E6EF18F092EC26F0F6
:1031C00041C03FF042C040F0000E4B6E000E026E58
:1031D000010E016E6FEC20F0CDBCF1EF18F0F3EFB3
:1031E00018F01FEF19F0CDAAF8EF18F0FAEF18F069
:1031F0001FEF19F0CDA8FFEF18F001EF19F01FEF46
:1032000019F0000E426E020E416E3F50411809E166
:1032100040504218D8B40FEF19F011EF19F019EF20
:1032200019F073EC26F041C03FF042C040F0000EB0
:103230004B6E000E026E010E016E6FEC20F0CDBCE5
:1032400024EF19F026EF19F052EF19F0CDAA2BEF69
:1032500019F02DEF19F052EF19F0CDB832EF19F047
:1032600034EF19F052EF19F0000E426E030E416E6A
:103270003F50411809E140504218D8B442EF19F0CC
:1032800044EF19F04CEF19F08DEC26F041C03FF0FF
:1032900042C040F0000E4B6E000E026E020E016E38
:1032A0006FEC20F0CDAC57EF19F059EF19F085EF26
:1032B00019F0CDAA5EEF19F060EF19F085EF19F063
:1032C000CDB865EF19F067EF19F085EF19F0000E32
:1032D000426E040E416E3F50411809E140504218C1
:1032E000D8B475EF19F077EF19F07FEF19F06DECA6
:1032F00026F041C03FF042C040F0000E4B6E000E81
:10330000026E020E016E6FEC20F0CDAC8AEF19F068
:103310008CEF19F0B8EF19F0CDBA91EF19F093EFE7
:1033200019F0B8EF19F0CDB898EF19F09AEF19F03D
:10333000B8EF19F0000E426E050E416E3F50411875
:1033400009E140504218D8B4A8EF19F0AAEF19F0DB
:10335000B2EF19F088EC26F041C03FF042C040F0D7
:10336000000E4B6E000E026E030E016E6FEC20F02D
:10337000CDACBDEF19F0BFEF19F0EBEF19F0CDBAFE
:10338000C4EF19F0C6EF19F0EBEF19F0CDA8CBEFB1
:1033900019F0CDEF19F0EBEF19F0000E426E060EAA
:1033A000416E3F50411809E140504218D8B4DBEF5C
:1033B00019F0DDEF19F0E5EF19F067EC26F041C0E8
:1033C0003FF042C040F0000E4B6E000E026E030E46
:1033D000016E6FEC20F01200C0EC24F0BA88BA9AAB
:1033E000000E0001F56F000EF46F180EF26F010E63
:1033F000F36FD28E000EFA6F000E5D6E000E0101AB
:103400004F6F010E5C6E360E5B6E2C0E1B6F2C0E1A
:103410001F6F2C0E236F0A0E276F2C0E2B6F2C0E96
:103420002F6F0A0E336F2E0E0001806FF2EC23F027
:10343000000E0001A16F000E446E000E436E3901B4
:10344000939994919991908F000E4B6E000E00010C
:10345000A76F3E01C18BC189560E00018019D8A407
:1034600034EF1AF036EF1AF066EF1AF0A551D8B41F
:103470003CEF1AF03EEF1AF066EF1AF08251D96F66
:10348000DA6BD93BDA3BF00EDA17D9510F0BDA13AE
:10349000F00ED9178151DC6FDB6BD951DB27DA5184
:1034A000DC238351DB25936F000EDC21946F93C0E6
:1034B0005BF094C05CF05BC0A8F05CC0A9F0E1ECEC
:1034C00024F0000E0001A66F000EA56FA651D8B41F
:1034D0006CEF1AF06EEF1AF070EF1AF04BEC1FF071
:1034E0000001A751D8B477EF1AF079EF1AF02CEF5A
:1034F0001AF0000EA76F000E786F000E796F000EA5
:103500007A6F000E7B6F01010051000178270101E5
:10351000015100017923000E7A23000E7B23010163
:103520000251000178270101035100017923000EA7
:103530007A23000E7B230101045100017827010149
:10354000055100017923000E7A23000E7B2301012F
:103550000651000178270101075100017923000E6F
:103560007A23000E7B230101085100017827010115
:10357000095100017923000E7A23000E7B230101FB
:103580000A510001782701010B5100017923000E37
:103590007A23000E7B23AB0EBA6FAA0EBB6F2A0EE6
:1035A000BC6F3E0EBD6F78C0A8F079C0A9F07AC09C
:1035B000AAF07BC0ABF0000E07EC1CF0A8C0B6F080
:1035C000A9C0B7F0AAC0B8F0ABC0B9F004EC10F0D5
:1035D000B6C0CFF0B7C0D0F0B8C0D1F0B9C0D2F00B
:1035E000FBEC20F0CFC097F0D0C098F097C00CF162
:1035F00098C00DF197C072F098C073F0000E0001F2
:10360000966F000E956F2CEF1AF00DEF00F0600E24
:103610004F24D96EDA6A000EDA22000EDF6E3D0109
:10362000F9A715EF1BF017EF1BF036EF1BF0600E3C
:103630004F24D96EDA6A000EDA220001DF82E651E9
:10364000E711E811D8B427EF1BF029EF1BF036EF94
:103650001BF002D836EF1BF00500FA6EE651FD6E46
:10366000E751FE6EE851FF6EFA5012003D01F9A3DA
:103670003CEF1BF03EEF1BF05DEF1BF0600E4F24A4
:10368000D96EDA6A000EDA220001DF84E351E41118
:10369000E511D8B44EEF1BF050EF1BF05DEF1BF0BF
:1036A00002D85DEF1BF00500FA6EE351FD6EE451A8
:1036B000FE6EE551FF6EFA5012006F00A0F703F0A6
:1036C0004F28070B046E4E500418D8A46AEF1BF065
:1036D0006CEF1BF06EEF1BF07AEF1BF0680E4F24BF
:1036E000D96EDA6A000EDA2260000FF0DFFF04C044
:1036F0004FF04D2AFCEC24F0506E2A0E506483EFFC
:103700001BF085EF1BF08DEF1BF02F0E50648BEF3D
:103710001BF08DEF1BF0A8EF1BF0550E5018D8B41E
:1037200094EF1BF096EF1BF0A8EF1BF0440E50181F
:10373000D8B49DEF1BF09FEF1BF0A8EF1BF04E0ECF
:103740005018D8A4A6EF1BF0A8EF1BF0B0EF1BF0A9
:1037500050C080F0000E446E000E436E06EF1CF069
:10376000560E5018D8A4B7EF1BF0B9EF1BF0BFEFFF
:103770001BF050C080F0434A442A06EF1CF02F0E85
:103780005064C5EF1BF0C7EF1BF0DAEF1BF03A0EE9
:103790005060CDEF1BF0CFEF1BF0DAEF1BF0800E87
:1037A0004324D96E000E4420DA6E5050D00FDF6EE5
:1037B000434A442A400E5064E0EF1BF0E2EF1BF056
:1037C000F5EF1BF0470E5060E8EF1BF0EAEF1BF03F
:1037D000F5EF1BF0800E4324D96E000E4420DA6E04
:1037E0005050C90FDF6E434A442A040E4318441058
:1037F000D8A4FDEF1BF0FFEF1BF006EF1CF0010E4D
:103800000001A56F000E446E000E436E1200000111
:10381000B06F0001B051D8B410EF1CF012EF1CF0E3
:1038200034EF1CF0ABBF19EF1CF017EF1CF034EFB6
:103830001CF0A8C0ACF0A9C0ADF0AAC0AEF0ABC0FF
:10384000AFF0AC1FAD1FAE1FAF1FAC2B000EAD23F2
:10385000AE23AF23ACC0B2F0ADC0B3F0AEC0B4F095
:10386000AFC0B5F03CEF1CF0A8C0B2F0A9C0B3F0F7
:10387000AAC0B4F0ABC0B5F0A851A911AA11AB1100
:10388000D8A445EF1CF047EF1CF051EF1CF0000EE0
:10389000A86F000EA96F000EAA6F000EAB6FE2EFCB
:1038A0001CF0960EB16F5BEF1CF0B12BD890B533C6
:1038B000B433B333B233000EB215AC6F000EB31590
:1038C000AD6F000EB415AE6FFE0EB515AF6FAC51F7
:1038D000AD11AE11AF11D8A470EF1CF072EF1CF057
:1038E00055EF1CF080EF1CF0B12B010EB227000E3B
:1038F000B323B423B523D890B533B433B333B23341
:10390000000EB215AC6F000EB315AD6F000EB415FE
:10391000AE6FFF0EB515AF6FAC51AD11AE11AF115B
:10392000D8A495EF1CF097EF1CF074EF1CF09FEFFC
:103930001CF0B107D890B237B337B437B537B4BF3E
:10394000A4EF1CF0A6EF1CF0AEEF1CF0020EB1616C
:10395000ACEF1CF0AEEF1CF099EF1CF0B1B1B3EF7F
:103960001CF0B5EF1CF0B6EF1CF0B49FD890B1334B
:10397000B1C0ACF0AD6BAE6BAF6BACC0AFF0AE6BCB
:10398000AD6BAC6BAC51B213AD51B313AE51B413BC
:10399000AF51B513B051D8B4D0EF1CF0D2EF1CF03A
:1039A000DAEF1CF0ABBFD9EF1CF0D7EF1CF0DAEF69
:1039B0001CF0B58FB2C0A8F0B3C0A9F0B4C0AAF093
:1039C000B5C0ABF01200096E0950D8B4EAEF1CF094
:1039D000ECEF1CF00EEF1DF004BEF3EF1CF0F1EF66
:1039E0001CF00EEF1DF001C005F002C006F003C090
:1039F00007F004C008F0051E061E071E081E052A53
:103A0000000E06220722082205C00BF006C00CF0AB
:103A100007C00DF008C00EF016EF1DF001C00BF04E
:103A200002C00CF003C00DF004C00EF001500210F3
:103A300003100410D8A41FEF1DF021EF1DF02BEF91
:103A40001DF0000E016E000E026E000E036E000EE1
:103A5000046EBCEF1DF0960E0A6E35EF1DF00A2ABB
:103A6000D8900E320D320C320B32000E0B14056E54
:103A7000000E0C14066E000E0D14076EFE0E0E14D2
:103A8000086E0550061007100810D8A44AEF1DF064
:103A90004CEF1DF02FEF1DF05AEF1DF00A2A010E1A
:103AA0000B26000E0C220D220E22D8900E320D3263
:103AB0000C320B32000E0B14056E000E0C14066E49
:103AC000000E0D14076EFF0E0E14086E0550061042
:103AD00007100810D8A46FEF1DF071EF1DF04EEF26
:103AE0001DF079EF1DF00A06D8900B360C360D3616
:103AF0000E360DBE7EEF1DF080EF1DF088EF1DF03D
:103B0000020E0A6086EF1DF088EF1DF073EF1DF0C6
:103B10000AB08DEF1DF08FEF1DF090EF1DF00D9EA0
:103B2000D8900A320AC005F0066A076A086A05C01A
:103B300008F0076A066A056A05500B1206500C1257
:103B400007500D1208500E120950D8B4AAEF1DF0FC
:103B5000ACEF1DF0B4EF1DF004BEB3EF1DF0B1EFFC
:103B60001DF0B4EF1DF00E8E0BC001F00CC002F082
:103B70000DC003F00EC004F01200CDACC2EF1DF07A
:103B8000C4EF1DF0DEEF1DF0CDAAC9EF1DF0CBEFA5
:103B90001DF0DEEF1DF0CDB8D0EF1DF0D2EF1DF01F
:103BA000DEEF1DF03F015A9B5A935A995A91518367
:103BB0005199519148994891488B4893CDACE3EF86
:103BC0001DF0E5EF1DF0FFEF1DF0CDBAEAEF1DF09F
:103BD000ECEF1DF0FFEF1DF0CDB8F1EF1DF0F3EFAE
:103BE0001DF0FFEF1DF03F015A835A995A91519BE6
:103BF00051935199519148994891488B4893CDAC34
:103C000004EF1EF006EF1EF020EF1EF0CDBA0BEF12
:103C10001EF00DEF1EF020EF1EF0CDA812EF1EF0EB
:103C200014EF1EF020EF1EF03F015A835A995A916B
:103C3000519B51935189519148994891489B489380
:103C4000CDBC25EF1EF027EF1EF041EF1EF0CDBAE0
:103C50002CEF1EF02EEF1EF041EF1EF0CDA833EF3B
:103C60001EF035EF1EF041EF1EF03F015A9B5A93B4
:103C70005A995A91519B5193518951914881489B2E
:103C80004893CDBC46EF1EF048EF1EF062EF1EF0E9
:103C9000CDAA4DEF1EF04FEF1EF062EF1EF0CDA843
:103CA00054EF1EF056EF1EF062EF1EF03F015A9BDC
:103CB0005A935A895A91519B5193519951914881E4
:103CC000489B4893CDBC67EF1EF069EF1EF083EF71
:103CD0001EF0CDAA6EEF1EF070EF1EF083EF1EF007
:103CE000CDB875EF1EF077EF1EF083EF1EF03F01A9
:103CF0005A9B5A935A895A91518351995191489993
:103D00004891489B48931200CDBC89EF1EF08BEF81
:103D10001EF0A5EF1EF0CDBA90EF1EF092EF1EF050
:103D2000A5EF1EF0CDA897EF1EF099EF1EF0A5EFBE
:103D30001EF03F015A9B5A935A995A9151835199B7
:103D4000519148994891488B4893CDBCAAEF1EF0F9
:103D5000ACEF1EF0C6EF1EF0CDAAB1EF1EF0B3EF30
:103D60001EF0C6EF1EF0CDA8B8EF1EF0BAEF1EF0A1
:103D7000C6EF1EF03F015A835A995A91519B5193B5
:103D80005199519148994891488B4893CDBCCBEFBC
:103D90001EF0CDEF1EF0E7EF1EF0CDAAD2EF1EF021
:103DA000D4EF1EF0E7EF1EF0CDB8D9EF1EF0DBEF39
:103DB0001EF0E7EF1EF03F015A835A995A91519B2A
:103DC00051935189519148994891489B4893CDAC62
:103DD000ECEF1EF0EEEF1EF008EF1FF0CDAAF3EFB0
:103DE0001EF0F5EF1EF008EF1FF0CDB8FAEF1EF051
:103DF000FCEF1EF008EF1FF03F015A9B5A935A99AF
:103E00005A91519B5193518951914881489B4893B4
:103E1000CDAC0DEF1FF00FEF1FF029EF1FF0CDBA63
:103E200014EF1FF016EF1FF029EF1FF0CDB81BEFB6
:103E30001FF01DEF1FF029EF1FF03F015A9B5A930F
:103E40005A895A91519B5193519951914881489B5C
:103E50004893CDAC2EEF1FF030EF1FF04AEF1FF06C
:103E6000CDBA35EF1FF037EF1FF04AEF1FF0CDA8A6
:103E70003CEF1FF03EEF1FF04AEF1FF03F015A9B4F
:103E80005A935A895A91518351995191489948911D
:103E9000489B48931200D8903B34D96E3C34DA6E7C
:103EA000700ED926000EDA226F0078FFA8F06F009E
:103EB00074FFA9F0A9C0A8F00001A96B0F0EA81704
:103EC000000EA917340EA825D96E010EA921DA6EAD
:103ED000180E9525E16E010E9621E26E6F007FFFB0
:103EE000E7FFD8903B34D96E3C34DA6E700ED92699
:103EF000000EDA226F0078FFA8F06F0074FFA9F0BF
:103F0000040EAA6FD890A933A833AA2F82EF1FF00E
:103F10000F0EA817000EA917340EA825D96E010E92
:103F2000A921DA6E190E9525E16E010E9621E26E39
:103F30006F007FFFE7FFD8903B34D96E3C34DA6ED8
:103F4000700ED926000EDA226F0078FFA8F06F00FD
:103F500074FFA9F00F0EA817000EA917340EA8259C
:103F6000D96E010EA921DA6E1A0E9525E16E010EA9
:103F70009621E26E6F007FFFE7FF040E9527000E8B
:103F800096233B4A3C2A100E95199611D8A4CBEFE4
:103F90001FF0CDEF1FF0DEEF1FF0000E3C6E000EA5
:103FA0003B6E000E966F000E956F000EA66F180EFA
:103FB000F26F010EF36FBC8C3901938912001DEC76
:103FC00024F056045710D8A4E8EF1FF0EAEF1FF0D2
:103FD0001FEF20F03D043E10D8B4F1EF1FF0F3EFD7
:103FE0001FF013EF20F03D503E10D8B4FAEF1FF051
:103FF000FCEF1FF005EF20F0E2EC25F0D00E386E5C
:10400000CA0EE82EFED7382EFCD7000E3E6E010EEB
:104010003D6E000E086E640E076E17EC25F084EC02
:104020001EF0010E456E4550D8B419EF20F01BEF7D
:1040300020F01DEF20F075EC22F0B9EC18F05628B6
:1040400006E15728D8A427EF20F029EF20F05DEFF4
:1040500020F03D2808E13E28D8B431EF20F033EFBE
:1040600020F051EF20F03D503E10D8B43AEF20F050
:104070003CEF20F045EF20F0E2EC25F0D00E386E5A
:10408000CA0EE82EFED7382EFCD73D683E68000EDB
:10409000086E640E076E17EC25F0BDEC1DF0010EE6
:1040A000456E4550D8B457EF20F059EF20F05BEF44
:1040B00020F075EC22F086EC17F056505710D8A47B
:1040C00064EF20F066EF20F06EEF20F0000E3E6E01
:1040D000000E3D6EE2EC25F0000E456E12005350CE
:1040E000D8B475EF20F077EF20F0FAEF20F04550CC
:1040F000D8A47DEF20F07FEF20F0FAEF20F04B50B6
:10410000D8A485EF20F087EF20F08FEF20F0390161
:104110009981000E926EA991948E010E4B6E5250B1
:10412000D8B495EF20F097EF20F0FAEF20F0000ED2
:10413000526E584A592A59BEA0EF20F0A2EF20F043
:10414000FAEF20F059BEB0EF20F0595007E1060E0B
:10415000585CD8B0AEEF20F0B0EF20F0FAEF20F0CE
:1041600001040210D8A4B7EF20F0B9EF20F0BCEFA3
:1041700020F0070E3E01F16F020E01180210D8A4C4
:10418000C4EF20F0C6EF20F0C9EF20F0060E3E018C
:10419000F16F030E01180210D8A4D1EF20F0D3EF75
:1041A00020F0D6EF20F0100E3E01F16F3E01F88FA7
:1041B000F881F8B1DEEF20F0E0EF20F0D9EF20F049
:1041C000EF516F00C0FB03F0046A03C004F0036A00
:1041D0000326000E0422D8905834D96E5934DA6E72
:1041E000000ED926010EDA2260000FF0DEFF60001B
:1041F00013F0DDFF12000001D135D235D86FD85150
:10420000D8A405EF21F007EF21F011EF21F0000E07
:10421000CF6F000ED06F000ED16F000ED26F7EEF09
:1042200021F0CFC0D3F0D0C0D4F0D1C0D5F0D2C0EF
:10423000D6F0200E21EF21F0D890D633D533D433E9
:10424000D333E82E1CEF21F0D351D76FD18FFF0E5F
:10425000CF17FF0ED017FF0ED117000ED217960EF4
:10426000D85FD8BF38EF21F036EF21F04EEF21F0C4
:10427000D851800A970FD8B040EF21F042EF21F0DB
:1042800044EF21F007EF21F0D890D233D133D0336F
:10429000CF33D83F44EF21F066EF21F01F0ED865F1
:1042A00054EF21F056EF21F05EEF21F007EF21F0FF
:1042B000D890CF37D037D137D237D807D851D8A4F4
:1042C00064EF21F066EF21F058EF21F0D751D8B418
:1042D0006CEF21F06EEF21F076EF21F0D21FD11FAD
:1042E000D01FCF6D000ED023D123D223CFC0CFF06B
:1042F000D0C0D0F0D1C0D1F0D2C0D2F012002A3458
:104300002B34316E3150D8A488EF21F08AEF21F0A0
:1043100094EF21F0000E286E000E296E000E2A6E1A
:10432000000E2B6E01EF22F028C02CF029C02DF0DA
:104330002AC02EF02BC02FF0200EA4EF21F0D89031
:104340002F322E322D322C32E82E9FEF21F02C50BE
:10435000306E2A8EFF0E2816FF0E2916FF0E2A1623
:10436000000E2B16960E315E31BEBBEF21F0B9EF79
:1043700021F0D1EF21F03150800A970FD8B0C3EF70
:1043800021F0C5EF21F0C7EF21F08AEF21F0D8909E
:104390002B322A3229322832313EC7EF21F0E9EFA1
:1043A00021F01F0E3164D7EF21F0D9EF21F0E1EFBA
:1043B00021F08AEF21F0D890283629362A362B367C
:1043C00031063150D8A4E7EF21F0E9EF21F0DBEF1F
:1043D00021F03050D8B4EFEF21F0F1EF21F0F9EFF8
:1043E00021F02B1E2A1E291E286C000E29222A22AB
:1043F0002B2228C028F029C029F02AC02AF02BC07F
:104400002BF01200000EBE6E000EBD6E000EBA6ED6
:10441000000EBB6E000EBC6E060EC66ECC0EC26EDB
:10442000D30EC36E870EC46EF40EC56E840E3A01B1
:10443000706F870E606FE80E506F060E806FCC0EA7
:10444000406F000E716F000E816F000E516F000EF5
:10445000416F000E616F000E5A6F000E5B6F000E11
:104460006A6F000E6B6F000E7A6F000E7B6F000E8E
:10447000826F000E426F000E526F000E626F000ED0
:10448000726F4369536963697369070E836F446987
:104490005469646974690F0E846F57915691558100
:1044A000000E0001A86F000EA96F000EAA6F4EEC5F
:1044B00026F03901908F0A0E3A01DE6F050E136F58
:1044C0001E0E0A6F130E0D6F290E146F2E0E206F25
:1044D0001F0E0B6F060E186F2A0E196F2D0E156F1B
:1044E0000C0EE56F090EDF6F1200CD0E136ECC0EB1
:1044F000146E4C0E156E3E0E166E9C0E326EFF0E36
:10450000336E5BC034F05CC035F03250342633502B
:10451000352234C001F035C002F0000E02BEFF0E9D
:10452000036E046E010EE3EC1CF001C00FF002C03C
:1045300010F003C011F004C012F02CEC12F00FC008
:1045400028F010C029F011C02AF012C02BF07FEC27
:1045500021F028C036F029C037F0CBA0B2EF22F00E
:10456000B4EF22F0B7EF22F00001F44BF52B00017D
:10457000F5BFC4EF22F0F55109E1060EF45DD8A0B5
:10458000C4EF22F0C6EF22F0D5EF22F05BC007F0B7
:104590005CC008F017EC25F0000E0001F56F000E6E
:1045A000F46F000E456EE7EF22F036C001F037C021
:1045B00002F0F4C003F0F5C004F063EC25F0640EE3
:1045C0000124076E000E0220086E17EC25F0120081
:1045D00039019397000E0001A86F000EA96F000E1D
:1045E000AA6F16EC26F039019399000E0001A86F0E
:1045F000000EA96F000EAA6F0FEC26F0000E3D0111
:10460000EC6F000EED6F000EEE6F000EEF6F000E00
:10461000F06F000EF16FB00EF26F800EF36F000EB0
:10462000F46F8A0EF56F000EF66F000EF76F000E36
:10463000F86F000EF96F000EFA6F3C0E0001A86FC4
:104640004D0EA96F000EAA6F24EC26F03A0E000161
:10465000A86F4D0EA96F000EAA6F1DEC26F0000E7C
:104660000001A86F000EA96F000EAA6F2BEC26F0B8
:10467000000E0001A26F000EA46F000EA36F080EC3
:10468000FB6F000E4F6E000E4E6E000E4D6E390128
:10469000938712000E0EF66E4C0EF76E000EF86E3B
:1046A00000EE34F110EE10F009006F00D7FFEEFFBE
:1046B000E550E150F9E1380EF66E4D0EF76E000E42
:1046C000F86E09006F00D4FFFCF009006F00D4FF02
:1046D000FDF02E0EF66E4D0EF76E000EF86E00EE2B
:1046E00056F010EE05F009006F00D7FFEEFFE55021
:1046F000E150F9E100EE00F1340EEE6AE806FDE16A
:1047000000EE60F0480EEE6AE806FDE100EE3BF0D8
:104710001B0EEE6AE806FDE1080ED56E000ED66EA1
:10472000000ED76E0001ECEF19F06000CBF3D9FF5B
:104730006000CFF3DAFF0A0EDE18D8B4A2EF23F040
:10474000A4EF23F0B2EF23F06000CBF3D9FF6000B9
:10475000CFF3DAFFDF503D01EA6F0001F24BF32B9C
:10476000C3EF23F06000CBF3D9FF6000CFF3DAFF93
:10477000DF503D01EA6FBC9C39019399180E00018E
:10478000F26F010EF36F1200000E3E01DE6F000E9D
:10479000DF6F000EE06F000EE16F000EE46F000EA1
:1047A000E56F000EEA6F000EEC6F000EF16F000E69
:1047B000F36F000EF46F000EF56F000EF66F000E33
:1047C000F76F000EF96F000EFA6F000EFB6F000E10
:1047D000FC6F000EFD6F000EFE6F000EFF6F940E5B
:1047E000F86F120056C04DF157C04EF12E0E000169
:1047F0008019D8A4FEEF23F000EF24F004EF24F09A
:10480000000E576E000E566E2D0E8019D8A40BEFB9
:1048100024F00DEF24F00FEF24F0566857682B0EAC
:104820008019D8A416EF24F018EF24F01CEF24F020
:10483000000E576E010E566E120056C04DF157C055
:104840004EF12E0E00018019D8A429EF24F02BEF91
:1048500024F02FEF24F0000E576E000E566E2D0E32
:104860008019D8A436EF24F038EF24F03AEF24F082
:10487000566857682B0E8019D8A441EF24F043EFF7
:1048800024F047EF24F0000E576E010E566E120012
:104890003E01C18FC151FC0B0209C16FFD51F00BEC
:1048A0000309FD6F0F0EFD17C189C18B3C0EF16F1F
:1048B000F88FF881F8B15FEF24F061EF24F05AEF40
:1048C00024F0EF516F00C0FB01F0026A01C002F05A
:1048D000016A011000019F6F0250A06FF00E3E01AF
:1048E000FD171200000E9B6E000E9C6E050E9D6E55
:1048F000E70E996E960E986E3901A89D98506F003C
:1049000064FEABF00001AC6BABC0ACF0AB6BAB11B9
:10491000F66FAC51F76F3901988D000E0001A86F4A
:10492000000EA96F000EAA6F39EC26F0330E9A6EB6
:104930001200000EB36E000EB46E050EB56E0B0EB7
:10494000B16EDC0EB06E3901A491B0506F00C4FEA0
:10495000ABF00001AC6BABC0ACF0AB6BAB11F86F64
:10496000AC51F96F39019481000E0001A86F000E5F
:10497000A96F000EAA6F47EC26F0330EB26E12003C
:104980009AEC26F0B4EC25F002EC22F0FBEC25F0DA
:10499000C4EC23F04AEC25F0C6EC25F0EFEC25F052
:1049A00031EC25F072EC24F099EC24F08CEC25F03D
:1049B00078EC25F0A0EC25F0E8EC22F0D5EC25F021
:1049C0001200A8C0AAF0A9C0ABF00001D890AB3388
:1049D000AA33D890AB33AA33AA51696EA8C0AAF003
:1049E000030EAA17060EAB6FD890AA37AB2FF4EFC1
:1049F00024F0AA51686E1200680E4E24D96EDA6A4D
:104A0000000EDA22DF50026E4E28070B016E01C045
:104A10004EF0390193974D50D8B411EF25F013EFB4
:104A200025F014EF25F04D0693870250120007C0C1
:104A300009F008C00AF0D8900A320932D8900A3238
:104A400009320950696E07C009F0030E0916060EF7
:104A50000A6ED89009360A2E29EF25F00950686EA3
:104A60001200030E966E000E956E000E976E1B0ED2
:104A7000936E000E926E3901A9919981000E00018A
:104A8000A86F000EA96F000EAA6F32EC26F0CF0EB1
:104A9000946E1200030EA26E000EA16E000EA36EA5
:104AA000A70E9F6E000E9E6E3901A7919781000E92
:104AB0000001A86F000EA96F000EAA6F40EC26F04F
:104AC000970EA06E1200015003026F00CCFF05F09C
:104AD0006F00D0FF06F001500402F350062602508A
:104AE0000302F350062605C001F006C002F01200D2
:104AF000000E3F01456F000E426F000E436F140E13
:104B0000466F000E476F000E406F000E486F060E96
:104B1000416F810E446F1200000E3F014E6F000E78
:104B20004B6F000E4C6F140E4F6F000E506F000E47
:104B3000496F000E516F060E4A6F810E4D6F1200C5
:104B4000000E3F01576F000E546F000E556F140E8C
:104B5000586F000E596F000E526F000E5A6F060EFE
:104B6000536F810E566F1200000E3901C06F000E98
:104B7000C16F000EC26F000EC36F000EC46F000E37
:104B8000C56F000EC66F000EC76F1200010EAE6E2D
:104B9000000EAD6E000EAF6E950EAB6E000EAA6EDF
:104BA0003901A495A90EAC6E1200020E3D01146FDE
:104BB000400E156F000E166F000E1C6F000E196F61
:104BC000C39412003F015A9B5A935A995A91519398
:104BD0005199519148994891489B48931200800EF1
:104BE0006A6E1A0E696EC00E686E3F015F51F30B5C
:104BF00004095F6F1200600E3901D96F000EDB6F80
:104C0000000EDD6F080EDF6F000EDE6F1200303118
:104C10003233343536373839414243444546A8C0EB
:104C200047F1A9C048F1AAC049F11200A8C04AF151
:104C3000A9C04BF1AAC04CF11200A8C0E3F0A9C072
:104C4000E4F0AAC0E5F01200A8C0E6F0A9C0E7F0C1
:104C5000AAC0E8F01200A8C044F1A9C045F1AAC05A
:104C600046F11200A8C0E9F0A9C0EAF0AAC0EBF032
:104C70001200A8C0DDF0A9C0DEF0AAC0DFF012006B
:104C8000A8C0ECF0A9C0EDF0AAC0EEF01200A8C0D8
:104C9000E0F0A9C0E1F0AAC0E2F01200A8C0EFF075
:104CA000A9C0F0F0AAC0F1F012003F015199519152
:104CB0005A895A9112003F01489B4893518951915A
:104CC00012003F015A995A91488B489312003F01B4
:104CD000489B48935A895A9112003F015A995A9118
:104CE0005189519112003F0151995191488B48933C
:104CF00012003F0148994891518312003F015A9B8D
:104D00005A93488112003F01519B51935A831200DC
:104D10003F01519B5193488112003F0148994891AE
:104D20005A8312003F015A9B5A9351831200FFFF8E
:034D3000FFFF0181
:0A4D3400D29A12000A0012001200C9
:020000040030CA
:0A0000008CFFF7FF9FFFFFFFFFFFDB
:00000001FF
